{
  "contractName": "CrwdToken",
  "abi": [
    {
      "inputs": [
        {
          "internalType": "address",
          "name": "_stateControl",
          "type": "address"
        },
        {
          "internalType": "address",
          "name": "_whitelistControl",
          "type": "address"
        },
        {
          "internalType": "address",
          "name": "_withdrawControl",
          "type": "address"
        },
        {
          "internalType": "address",
          "name": "_tokenAssignmentControl",
          "type": "address"
        },
        {
          "internalType": "address",
          "name": "_notLocked",
          "type": "address"
        },
        {
          "internalType": "address",
          "name": "_lockedTeam",
          "type": "address"
        },
        {
          "internalType": "address",
          "name": "_lockedDev",
          "type": "address"
        },
        {
          "internalType": "address",
          "name": "_lockedCountry",
          "type": "address"
        }
      ],
      "payable": false,
      "stateMutability": "nonpayable",
      "type": "constructor"
    },
    {
      "anonymous": false,
      "inputs": [
        {
          "indexed": true,
          "internalType": "address",
          "name": "owner",
          "type": "address"
        },
        {
          "indexed": true,
          "internalType": "address",
          "name": "spender",
          "type": "address"
        },
        {
          "indexed": false,
          "internalType": "uint256",
          "name": "value",
          "type": "uint256"
        }
      ],
      "name": "Approval",
      "type": "event"
    },
    {
      "anonymous": false,
      "inputs": [
        {
          "indexed": true,
          "internalType": "address",
          "name": "to",
          "type": "address"
        },
        {
          "indexed": false,
          "internalType": "uint256",
          "name": "amount",
          "type": "uint256"
        }
      ],
      "name": "Mint",
      "type": "event"
    },
    {
      "anonymous": false,
      "inputs": [],
      "name": "MintFinished",
      "type": "event"
    },
    {
      "anonymous": false,
      "inputs": [
        {
          "indexed": false,
          "internalType": "enum CrwdToken.States",
          "name": "oldState",
          "type": "uint8"
        },
        {
          "indexed": false,
          "internalType": "enum CrwdToken.States",
          "name": "newState",
          "type": "uint8"
        }
      ],
      "name": "StateTransition",
      "type": "event"
    },
    {
      "anonymous": false,
      "inputs": [
        {
          "indexed": true,
          "internalType": "address",
          "name": "from",
          "type": "address"
        },
        {
          "indexed": true,
          "internalType": "address",
          "name": "to",
          "type": "address"
        },
        {
          "indexed": false,
          "internalType": "uint256",
          "name": "value",
          "type": "uint256"
        }
      ],
      "name": "Transfer",
      "type": "event"
    },
    {
      "anonymous": false,
      "inputs": [
        {
          "indexed": false,
          "internalType": "address",
          "name": "addr",
          "type": "address"
        }
      ],
      "name": "Whitelisted",
      "type": "event"
    },
    {
      "payable": true,
      "stateMutability": "payable",
      "type": "fallback"
    },
    {
      "constant": true,
      "inputs": [],
      "name": "ETH_CRWDTOKEN",
      "outputs": [
        {
          "internalType": "uint256",
          "name": "",
          "type": "uint256"
        }
      ],
      "payable": false,
      "stateMutability": "view",
      "type": "function"
    },
    {
      "constant": true,
      "inputs": [
        {
          "internalType": "address",
          "name": "_owner",
          "type": "address"
        },
        {
          "internalType": "address",
          "name": "_spender",
          "type": "address"
        }
      ],
      "name": "allowance",
      "outputs": [
        {
          "internalType": "uint256",
          "name": "",
          "type": "uint256"
        }
      ],
      "payable": false,
      "stateMutability": "view",
      "type": "function"
    },
    {
      "constant": false,
      "inputs": [
        {
          "internalType": "address",
          "name": "_spender",
          "type": "address"
        },
        {
          "internalType": "uint256",
          "name": "_value",
          "type": "uint256"
        }
      ],
      "name": "approve",
      "outputs": [
        {
          "internalType": "bool",
          "name": "",
          "type": "bool"
        }
      ],
      "payable": false,
      "stateMutability": "nonpayable",
      "type": "function"
    },
    {
      "constant": true,
      "inputs": [],
      "name": "countryTimeLock",
      "outputs": [
        {
          "internalType": "address",
          "name": "",
          "type": "address"
        }
      ],
      "payable": false,
      "stateMutability": "view",
      "type": "function"
    },
    {
      "constant": true,
      "inputs": [],
      "name": "decimals",
      "outputs": [
        {
          "internalType": "uint8",
          "name": "",
          "type": "uint8"
        }
      ],
      "payable": false,
      "stateMutability": "view",
      "type": "function"
    },
    {
      "constant": false,
      "inputs": [
        {
          "internalType": "address",
          "name": "_spender",
          "type": "address"
        },
        {
          "internalType": "uint256",
          "name": "_subtractedValue",
          "type": "uint256"
        }
      ],
      "name": "decreaseApproval",
      "outputs": [
        {
          "internalType": "bool",
          "name": "",
          "type": "bool"
        }
      ],
      "payable": false,
      "stateMutability": "nonpayable",
      "type": "function"
    },
    {
      "constant": true,
      "inputs": [],
      "name": "devTimeLock",
      "outputs": [
        {
          "internalType": "address",
          "name": "",
          "type": "address"
        }
      ],
      "payable": false,
      "stateMutability": "view",
      "type": "function"
    },
    {
      "constant": true,
      "inputs": [],
      "name": "endBlock",
      "outputs": [
        {
          "internalType": "uint256",
          "name": "",
          "type": "uint256"
        }
      ],
      "payable": false,
      "stateMutability": "view",
      "type": "function"
    },
    {
      "constant": true,
      "inputs": [
        {
          "internalType": "address",
          "name": "",
          "type": "address"
        }
      ],
      "name": "ethPossibleRefunds",
      "outputs": [
        {
          "internalType": "uint256",
          "name": "",
          "type": "uint256"
        }
      ],
      "payable": false,
      "stateMutability": "view",
      "type": "function"
    },
    {
      "constant": false,
      "inputs": [
        {
          "internalType": "address",
          "name": "_spender",
          "type": "address"
        },
        {
          "internalType": "uint256",
          "name": "_addedValue",
          "type": "uint256"
        }
      ],
      "name": "increaseApproval",
      "outputs": [
        {
          "internalType": "bool",
          "name": "",
          "type": "bool"
        }
      ],
      "payable": false,
      "stateMutability": "nonpayable",
      "type": "function"
    },
    {
      "constant": true,
      "inputs": [],
      "name": "maxTotalSupply",
      "outputs": [
        {
          "internalType": "uint256",
          "name": "",
          "type": "uint256"
        }
      ],
      "payable": false,
      "stateMutability": "view",
      "type": "function"
    },
    {
      "constant": true,
      "inputs": [],
      "name": "mintingFinished",
      "outputs": [
        {
          "internalType": "bool",
          "name": "",
          "type": "bool"
        }
      ],
      "payable": false,
      "stateMutability": "view",
      "type": "function"
    },
    {
      "constant": true,
      "inputs": [],
      "name": "miscNotLocked",
      "outputs": [
        {
          "internalType": "address",
          "name": "",
          "type": "address"
        }
      ],
      "payable": false,
      "stateMutability": "view",
      "type": "function"
    },
    {
      "constant": true,
      "inputs": [],
      "name": "name",
      "outputs": [
        {
          "internalType": "string",
          "name": "",
          "type": "string"
        }
      ],
      "payable": false,
      "stateMutability": "view",
      "type": "function"
    },
    {
      "constant": true,
      "inputs": [],
      "name": "percentForSale",
      "outputs": [
        {
          "internalType": "uint256",
          "name": "",
          "type": "uint256"
        }
      ],
      "payable": false,
      "stateMutability": "view",
      "type": "function"
    },
    {
      "constant": true,
      "inputs": [],
      "name": "silencePeriod",
      "outputs": [
        {
          "internalType": "uint256",
          "name": "",
          "type": "uint256"
        }
      ],
      "payable": false,
      "stateMutability": "view",
      "type": "function"
    },
    {
      "constant": true,
      "inputs": [],
      "name": "soldTokens",
      "outputs": [
        {
          "internalType": "uint256",
          "name": "",
          "type": "uint256"
        }
      ],
      "payable": false,
      "stateMutability": "view",
      "type": "function"
    },
    {
      "constant": true,
      "inputs": [],
      "name": "startAcceptingFundsBlock",
      "outputs": [
        {
          "internalType": "uint256",
          "name": "",
          "type": "uint256"
        }
      ],
      "payable": false,
      "stateMutability": "view",
      "type": "function"
    },
    {
      "constant": true,
      "inputs": [],
      "name": "state",
      "outputs": [
        {
          "internalType": "enum CrwdToken.States",
          "name": "",
          "type": "uint8"
        }
      ],
      "payable": false,
      "stateMutability": "view",
      "type": "function"
    },
    {
      "constant": true,
      "inputs": [],
      "name": "stateControl",
      "outputs": [
        {
          "internalType": "address",
          "name": "",
          "type": "address"
        }
      ],
      "payable": false,
      "stateMutability": "view",
      "type": "function"
    },
    {
      "constant": true,
      "inputs": [],
      "name": "symbol",
      "outputs": [
        {
          "internalType": "string",
          "name": "",
          "type": "string"
        }
      ],
      "payable": false,
      "stateMutability": "view",
      "type": "function"
    },
    {
      "constant": true,
      "inputs": [],
      "name": "teamTimeLock",
      "outputs": [
        {
          "internalType": "address",
          "name": "",
          "type": "address"
        }
      ],
      "payable": false,
      "stateMutability": "view",
      "type": "function"
    },
    {
      "constant": true,
      "inputs": [],
      "name": "tokenAssignmentControl",
      "outputs": [
        {
          "internalType": "address",
          "name": "",
          "type": "address"
        }
      ],
      "payable": false,
      "stateMutability": "view",
      "type": "function"
    },
    {
      "constant": true,
      "inputs": [],
      "name": "totalSupply",
      "outputs": [
        {
          "internalType": "uint256",
          "name": "",
          "type": "uint256"
        }
      ],
      "payable": false,
      "stateMutability": "view",
      "type": "function"
    },
    {
      "constant": true,
      "inputs": [],
      "name": "weiICOMaximum",
      "outputs": [
        {
          "internalType": "uint256",
          "name": "",
          "type": "uint256"
        }
      ],
      "payable": false,
      "stateMutability": "view",
      "type": "function"
    },
    {
      "constant": true,
      "inputs": [],
      "name": "weiICOMinimum",
      "outputs": [
        {
          "internalType": "uint256",
          "name": "",
          "type": "uint256"
        }
      ],
      "payable": false,
      "stateMutability": "view",
      "type": "function"
    },
    {
      "constant": true,
      "inputs": [
        {
          "internalType": "address",
          "name": "",
          "type": "address"
        }
      ],
      "name": "whitelist",
      "outputs": [
        {
          "internalType": "bool",
          "name": "",
          "type": "bool"
        }
      ],
      "payable": false,
      "stateMutability": "view",
      "type": "function"
    },
    {
      "constant": true,
      "inputs": [],
      "name": "whitelistControl",
      "outputs": [
        {
          "internalType": "address",
          "name": "",
          "type": "address"
        }
      ],
      "payable": false,
      "stateMutability": "view",
      "type": "function"
    },
    {
      "constant": true,
      "inputs": [],
      "name": "withdrawControl",
      "outputs": [
        {
          "internalType": "address",
          "name": "",
          "type": "address"
        }
      ],
      "payable": false,
      "stateMutability": "view",
      "type": "function"
    },
    {
      "constant": false,
      "inputs": [
        {
          "internalType": "uint256",
          "name": "_newWeiICOMinimum",
          "type": "uint256"
        },
        {
          "internalType": "uint256",
          "name": "_newWeiICOMaximum",
          "type": "uint256"
        },
        {
          "internalType": "uint256",
          "name": "_silencePeriod",
          "type": "uint256"
        },
        {
          "internalType": "uint256",
          "name": "_newEndBlock",
          "type": "uint256"
        }
      ],
      "name": "updateEthICOThresholds",
      "outputs": [],
      "payable": false,
      "stateMutability": "nonpayable",
      "type": "function"
    },
    {
      "constant": false,
      "inputs": [],
      "name": "startICO",
      "outputs": [],
      "payable": false,
      "stateMutability": "nonpayable",
      "type": "function"
    },
    {
      "constant": false,
      "inputs": [
        {
          "internalType": "address",
          "name": "beneficiary",
          "type": "address"
        },
        {
          "internalType": "uint256",
          "name": "amount",
          "type": "uint256"
        }
      ],
      "name": "addPresaleAmount",
      "outputs": [],
      "payable": false,
      "stateMutability": "nonpayable",
      "type": "function"
    },
    {
      "constant": false,
      "inputs": [],
      "name": "endICO",
      "outputs": [],
      "payable": false,
      "stateMutability": "nonpayable",
      "type": "function"
    },
    {
      "constant": false,
      "inputs": [],
      "name": "anyoneEndICO",
      "outputs": [],
      "payable": false,
      "stateMutability": "nonpayable",
      "type": "function"
    },
    {
      "constant": false,
      "inputs": [
        {
          "internalType": "address",
          "name": "_whitelisted",
          "type": "address"
        }
      ],
      "name": "addToWhitelist",
      "outputs": [],
      "payable": false,
      "stateMutability": "nonpayable",
      "type": "function"
    },
    {
      "constant": false,
      "inputs": [],
      "name": "pause",
      "outputs": [],
      "payable": false,
      "stateMutability": "nonpayable",
      "type": "function"
    },
    {
      "constant": false,
      "inputs": [],
      "name": "abort",
      "outputs": [],
      "payable": false,
      "stateMutability": "nonpayable",
      "type": "function"
    },
    {
      "constant": false,
      "inputs": [],
      "name": "resumeICO",
      "outputs": [],
      "payable": false,
      "stateMutability": "nonpayable",
      "type": "function"
    },
    {
      "constant": false,
      "inputs": [],
      "name": "requestRefund",
      "outputs": [],
      "payable": false,
      "stateMutability": "nonpayable",
      "type": "function"
    },
    {
      "constant": false,
      "inputs": [
        {
          "internalType": "uint256",
          "name": "_amount",
          "type": "uint256"
        }
      ],
      "name": "requestPayout",
      "outputs": [],
      "payable": false,
      "stateMutability": "nonpayable",
      "type": "function"
    },
    {
      "constant": false,
      "inputs": [
        {
          "internalType": "contract ERC20Basic",
          "name": "_foreignToken",
          "type": "address"
        },
        {
          "internalType": "address",
          "name": "_to",
          "type": "address"
        }
      ],
      "name": "rescueToken",
      "outputs": [],
      "payable": false,
      "stateMutability": "nonpayable",
      "type": "function"
    },
    {
      "constant": false,
      "inputs": [
        {
          "internalType": "address",
          "name": "_to",
          "type": "address"
        },
        {
          "internalType": "uint256",
          "name": "_value",
          "type": "uint256"
        }
      ],
      "name": "transfer",
      "outputs": [
        {
          "internalType": "bool",
          "name": "success",
          "type": "bool"
        }
      ],
      "payable": false,
      "stateMutability": "nonpayable",
      "type": "function"
    },
    {
      "constant": false,
      "inputs": [
        {
          "internalType": "address",
          "name": "_from",
          "type": "address"
        },
        {
          "internalType": "address",
          "name": "_to",
          "type": "address"
        },
        {
          "internalType": "uint256",
          "name": "_value",
          "type": "uint256"
        }
      ],
      "name": "transferFrom",
      "outputs": [
        {
          "internalType": "bool",
          "name": "success",
          "type": "bool"
        }
      ],
      "payable": false,
      "stateMutability": "nonpayable",
      "type": "function"
    },
    {
      "constant": true,
      "inputs": [
        {
          "internalType": "address",
          "name": "_account",
          "type": "address"
        }
      ],
      "name": "balanceOf",
      "outputs": [
        {
          "internalType": "uint256",
          "name": "balance",
          "type": "uint256"
        }
      ],
      "payable": false,
      "stateMutability": "view",
      "type": "function"
    }
  ],
  "bytecode": "0x60806040526000601460006101000a81548160ff0219169083151502179055503480156200002c57600080fd5b50604051620047ab380380620047ab83398181016040526101008110156200005357600080fd5b81019080805190602001909291908051906020019092919080519060200190929190805190602001909291908051906020019092919080519060200190929190805190602001909291908051906020019092919050505087600a60006101000a81548173ffffffffffffffffffffffffffffffffffffffff021916908373ffffffffffffffffffffffffffffffffffffffff16021790555086600b60006101000a81548173ffffffffffffffffffffffffffffffffffffffff021916908373ffffffffffffffffffffffffffffffffffffffff16021790555085600c60006101000a81548173ffffffffffffffffffffffffffffffffffffffff021916908373ffffffffffffffffffffffffffffffffffffffff16021790555084600d60006101000a81548173ffffffffffffffffffffffffffffffffffffffff021916908373ffffffffffffffffffffffffffffffffffffffff160217905550620001c060006200030260201b60201c565b6000600e819055506000600f81905550600060128190555060006013819055506000600181905550600060048190555082600660006101000a81548173ffffffffffffffffffffffffffffffffffffffff021916908373ffffffffffffffffffffffffffffffffffffffff16021790555081600760006101000a81548173ffffffffffffffffffffffffffffffffffffffff021916908373ffffffffffffffffffffffffffffffffffffffff16021790555080600860006101000a81548173ffffffffffffffffffffffffffffffffffffffff021916908373ffffffffffffffffffffffffffffffffffffffff16021790555083600960006101000a81548173ffffffffffffffffffffffffffffffffffffffff021916908373ffffffffffffffffffffffffffffffffffffffff160217905550505050505050505062000395565b7f3a779de46631dd65116ae538600f1bc3c338200c6aef638429b5de43301c28f7600d60149054906101000a900460ff1682604051808360058111156200034557fe5b60ff1681526020018260058111156200035a57fe5b60ff1681526020019250505060405180910390a180600d60146101000a81548160ff021916908360058111156200038d57fe5b021790555050565b61440680620003a56000396000f3fe6080604052600436106102675760003560e01c80637b807a5111610144578063c19d93fb116100b6578063d73dd6231161007a578063d73dd62314611087578063d87d2a66146110fa578063dd62ed3e14611125578063e43252d7146111aa578063f4e68486146111fb578063f8b1fb121461122657610267565b8063c19d93fb14610f5a578063c8c2ed5414610f93578063cc577f3814610fea578063d5cef13314611045578063d6fea3061461105c57610267565b806390c79af91161010857806390c79af914610d8157806395d89b4114610dac5780639b19251a14610e3c5780639cbd7da514610ea5578063a9059cbb14610ebc578063b21ed44e14610f2f57610267565b80637b807a5114610c685780637fa8c15814610cbf5780637fe98ae014610cd65780638456cb5914610d2f5780638f97e3a014610d4657610267565b806338dacaab116101dd57806359d3dad9116101a157806359d3dad914610a605780635ed9ebfc14610ab7578063650d22e814610ae25780636618846314610b395780636aa9c82b14610bac57806370a0823114610c0357610267565b806338dacaab146108ff5780633cae09ac1461095657806341f1d4dd146109815780634707d000146109d85780634f24840914610a4957610267565b806318160ddd1161022f57806318160ddd146107b757806323b872dd146107e25780632ab4d05214610875578063313ce567146108a057806332b3c323146108d157806335a063b4146108e857610267565b806304b2bf991461060357806305d2035b1461065a57806306fdde0314610689578063083c632314610719578063095ea7b314610744575b600280600581111561027557fe5b600d60149054906101000a900460ff16600581111561029057fe5b14610303576040517f08c379a00000000000000000000000000000000000000000000000000000000081526004018080602001828103825260138152602001807f696e76616c696420746f6b656e2073746174650000000000000000000000000081525060200191505060405180910390fd5b60011515600560003373ffffffffffffffffffffffffffffffffffffffff1673ffffffffffffffffffffffffffffffffffffffff16815260200190815260200160002060009054906101000a900460ff161515146103c9576040517f08c379a000000000000000000000000000000000000000000000000000000000815260040180806020018281038252600f8152602001807f6e6f742077686974656c6973746564000000000000000000000000000000000081525060200191505060405180910390fd5b600f543073ffffffffffffffffffffffffffffffffffffffff16311115610458576040517f08c379a000000000000000000000000000000000000000000000000000000000815260040180806020018281038252600d8152602001807f77656949434f4d6178696d756d0000000000000000000000000000000000000081525060200191505060405180910390fd5b60125443106104cf576040517f08c379a00000000000000000000000000000000000000000000000000000000081526004018080602001828103825260108152602001807f656e64426c6f636b20726561636865640000000000000000000000000000000081525060200191505060405180910390fd5b601154431015610547576040517f08c379a00000000000000000000000000000000000000000000000000000000081526004018080602001828103825260118152602001807f7374617274426c6f636b2066757475726500000000000000000000000000000081525060200191505060405180910390fd5b600061055e6013543461128b90919063ffffffff16565b905061056a3382611311565b6105bc34600360003373ffffffffffffffffffffffffffffffffffffffff1673ffffffffffffffffffffffffffffffffffffffff168152602001908152602001600020546114b890919063ffffffff16565b600360003373ffffffffffffffffffffffffffffffffffffffff1673ffffffffffffffffffffffffffffffffffffffff168152602001908152602001600020819055505050005b34801561060f57600080fd5b50610618611540565b604051808273ffffffffffffffffffffffffffffffffffffffff1673ffffffffffffffffffffffffffffffffffffffff16815260200191505060405180910390f35b34801561066657600080fd5b5061066f611566565b604051808215151515815260200191505060405180910390f35b34801561069557600080fd5b5061069e611579565b6040518080602001828103825283818151815260200191508051906020019080838360005b838110156106de5780820151818401526020810190506106c3565b50505050905090810190601f16801561070b5780820380516001836020036101000a031916815260200191505b509250505060405180910390f35b34801561072557600080fd5b5061072e6115b2565b6040518082815260200191505060405180910390f35b34801561075057600080fd5b5061079d6004803603604081101561076757600080fd5b81019080803573ffffffffffffffffffffffffffffffffffffffff169060200190929190803590602001909291905050506115b8565b604051808215151515815260200191505060405180910390f35b3480156107c357600080fd5b506107cc6116aa565b6040518082815260200191505060405180910390f35b3480156107ee57600080fd5b5061085b6004803603606081101561080557600080fd5b81019080803573ffffffffffffffffffffffffffffffffffffffff169060200190929190803573ffffffffffffffffffffffffffffffffffffffff169060200190929190803590602001909291905050506116b4565b604051808215151515815260200191505060405180910390f35b34801561088157600080fd5b5061088a611799565b6040518082815260200191505060405180910390f35b3480156108ac57600080fd5b506108b56117ab565b604051808260ff1660ff16815260200191505060405180910390f35b3480156108dd57600080fd5b506108e66117b0565b005b3480156108f457600080fd5b506108fd611909565b005b34801561090b57600080fd5b50610914611a75565b604051808273ffffffffffffffffffffffffffffffffffffffff1673ffffffffffffffffffffffffffffffffffffffff16815260200191505060405180910390f35b34801561096257600080fd5b5061096b611a9b565b6040518082815260200191505060405180910390f35b34801561098d57600080fd5b50610996611aa1565b604051808273ffffffffffffffffffffffffffffffffffffffff1673ffffffffffffffffffffffffffffffffffffffff16815260200191505060405180910390f35b3480156109e457600080fd5b50610a47600480360360408110156109fb57600080fd5b81019080803573ffffffffffffffffffffffffffffffffffffffff169060200190929190803573ffffffffffffffffffffffffffffffffffffffff169060200190929190505050611ac7565b005b348015610a5557600080fd5b50610a5e611da5565b005b348015610a6c57600080fd5b50610a75611f4a565b604051808273ffffffffffffffffffffffffffffffffffffffff1673ffffffffffffffffffffffffffffffffffffffff16815260200191505060405180910390f35b348015610ac357600080fd5b50610acc611f70565b6040518082815260200191505060405180910390f35b348015610aee57600080fd5b50610af7611f76565b604051808273ffffffffffffffffffffffffffffffffffffffff1673ffffffffffffffffffffffffffffffffffffffff16815260200191505060405180910390f35b348015610b4557600080fd5b50610b9260048036036040811015610b5c57600080fd5b81019080803573ffffffffffffffffffffffffffffffffffffffff16906020019092919080359060200190929190505050611f9c565b604051808215151515815260200191505060405180910390f35b348015610bb857600080fd5b50610bc161222c565b604051808273ffffffffffffffffffffffffffffffffffffffff1673ffffffffffffffffffffffffffffffffffffffff16815260200191505060405180910390f35b348015610c0f57600080fd5b50610c5260048036036020811015610c2657600080fd5b81019080803573ffffffffffffffffffffffffffffffffffffffff169060200190929190505050612252565b6040518082815260200191505060405180910390f35b348015610c7457600080fd5b50610c7d61229a565b604051808273ffffffffffffffffffffffffffffffffffffffff1673ffffffffffffffffffffffffffffffffffffffff16815260200191505060405180910390f35b348015610ccb57600080fd5b50610cd46122c0565b005b348015610ce257600080fd5b50610d2d60048036036080811015610cf957600080fd5b8101908080359060200190929190803590602001909291908035906020019092919080359060200190929190505050612529565b005b348015610d3b57600080fd5b50610d44612895565b005b348015610d5257600080fd5b50610d7f60048036036020811015610d6957600080fd5b8101908080359060200190929190505050612a01565b005b348015610d8d57600080fd5b50610d96612bab565b6040518082815260200191505060405180910390f35b348015610db857600080fd5b50610dc1612bb1565b6040518080602001828103825283818151815260200191508051906020019080838360005b83811015610e01578082015181840152602081019050610de6565b50505050905090810190601f168015610e2e5780820380516001836020036101000a031916815260200191505b509250505060405180910390f35b348015610e4857600080fd5b50610e8b60048036036020811015610e5f57600080fd5b81019080803573ffffffffffffffffffffffffffffffffffffffff169060200190929190505050612bea565b604051808215151515815260200191505060405180910390f35b348015610eb157600080fd5b50610eba612c0a565b005b348015610ec857600080fd5b50610f1560048036036040811015610edf57600080fd5b81019080803573ffffffffffffffffffffffffffffffffffffffff16906020019092919080359060200190929190505050612d76565b604051808215151515815260200191505060405180910390f35b348015610f3b57600080fd5b50610f44612e59565b6040518082815260200191505060405180910390f35b348015610f6657600080fd5b50610f6f612e5e565b60405180826005811115610f7f57fe5b60ff16815260200191505060405180910390f35b348015610f9f57600080fd5b50610fa8612e71565b604051808273ffffffffffffffffffffffffffffffffffffffff1673ffffffffffffffffffffffffffffffffffffffff16815260200191505060405180910390f35b348015610ff657600080fd5b506110436004803603604081101561100d57600080fd5b81019080803573ffffffffffffffffffffffffffffffffffffffff16906020019092919080359060200190929190505050612e97565b005b34801561105157600080fd5b5061105a613033565b005b34801561106857600080fd5b50611071613258565b6040518082815260200191505060405180910390f35b34801561109357600080fd5b506110e0600480360360408110156110aa57600080fd5b81019080803573ffffffffffffffffffffffffffffffffffffffff1690602001909291908035906020019092919050505061325e565b604051808215151515815260200191505060405180910390f35b34801561110657600080fd5b5061110f61345a565b6040518082815260200191505060405180910390f35b34801561113157600080fd5b506111946004803603604081101561114857600080fd5b81019080803573ffffffffffffffffffffffffffffffffffffffff169060200190929190803573ffffffffffffffffffffffffffffffffffffffff169060200190929190505050613460565b6040518082815260200191505060405180910390f35b3480156111b657600080fd5b506111f9600480360360208110156111cd57600080fd5b81019080803573ffffffffffffffffffffffffffffffffffffffff1690602001909291905050506134e7565b005b34801561120757600080fd5b50611210613668565b6040518082815260200191505060405180910390f35b34801561123257600080fd5b506112756004803603602081101561124957600080fd5b81019080803573ffffffffffffffffffffffffffffffffffffffff16906020019092919050505061366e565b6040518082815260200191505060405180910390f35b60008083141561129e576000905061130b565b60008284029050828482816112af57fe5b0414611306576040517f08c379a00000000000000000000000000000000000000000000000000000000081526004018080602001828103825260218152602001806143b16021913960400191505060405180910390fd5b809150505b92915050565b611362816000808573ffffffffffffffffffffffffffffffffffffffff1673ffffffffffffffffffffffffffffffffffffffff168152602001908152602001600020546114b890919063ffffffff16565b6000808473ffffffffffffffffffffffffffffffffffffffff1673ffffffffffffffffffffffffffffffffffffffff168152602001908152602001600020819055506113b9816004546114b890919063ffffffff16565b6004819055506113fa6113e960326113db60648561128b90919063ffffffff16565b61368690919063ffffffff16565b6001546114b890919063ffffffff16565b6001819055508173ffffffffffffffffffffffffffffffffffffffff167f0f6798a560793a54c3bcfe86a93cde1e73087d944c0ea20544137d4121396885826040518082815260200191505060405180910390a28173ffffffffffffffffffffffffffffffffffffffff16600073ffffffffffffffffffffffffffffffffffffffff167fddf252ad1be2c89b69c2b068fc378daa952ba7f163c4a11628f55a4df523b3ef836040518082815260200191505060405180910390a35050565b600080828401905083811015611536576040517f08c379a000000000000000000000000000000000000000000000000000000000815260040180806020018281038252601b8152602001807f536166654d6174683a206164646974696f6e206f766572666c6f77000000000081525060200191505060405180910390fd5b8091505092915050565b600a60009054906101000a900473ffffffffffffffffffffffffffffffffffffffff1681565b601460009054906101000a900460ff1681565b6040518060400160405280600981526020017f43525744546f6b656e000000000000000000000000000000000000000000000081525081565b60125481565b600081600260003373ffffffffffffffffffffffffffffffffffffffff1673ffffffffffffffffffffffffffffffffffffffff16815260200190815260200160002060008573ffffffffffffffffffffffffffffffffffffffff1673ffffffffffffffffffffffffffffffffffffffff168152602001908152602001600020819055508273ffffffffffffffffffffffffffffffffffffffff163373ffffffffffffffffffffffffffffffffffffffff167f8c5be1e5ebec7d5bd14f71427d1e84f3dd0314c0f7b2291e5b200ac8c7c3b925846040518082815260200191505060405180910390a36001905092915050565b6000600154905090565b6000600460028160058111156116c657fe5b600d60149054906101000a900460ff1660058111156116e157fe5b148061171157508060058111156116f457fe5b600d60149054906101000a900460ff16600581111561170f57fe5b145b611783576040517f08c379a00000000000000000000000000000000000000000000000000000000081526004018080602001828103825260118152602001807f77726f6e6720746f6b656e20737461746500000000000000000000000000000081525060200191505060405180910390fd5b61178e8686866136d0565b925050509392505050565b670de0b6b3a76400006302aea5400281565b601281565b60028060058111156117be57fe5b600d60149054906101000a900460ff1660058111156117d957fe5b1461184c576040517f08c379a00000000000000000000000000000000000000000000000000000000081526004018080602001828103825260138152602001807f696e76616c696420746f6b656e2073746174650000000000000000000000000081525060200191505060405180910390fd5b60125443116118c3576040517f08c379a00000000000000000000000000000000000000000000000000000000081526004018080602001828103825260098152602001807f6e6f7420656e646564000000000000000000000000000000000000000000000081525060200191505060405180910390fd5b600e543073ffffffffffffffffffffffffffffffffffffffff163110156118f3576118ee6003613a85565b611906565b6118fb613b15565b6119056004613a85565b5b50565b600a60009054906101000a900473ffffffffffffffffffffffffffffffffffffffff1673ffffffffffffffffffffffffffffffffffffffff163373ffffffffffffffffffffffffffffffffffffffff16146119cc576040517f08c379a00000000000000000000000000000000000000000000000000000000081526004018080602001828103825260158152602001807f6f6e6c792073746174652d636f6e74726f6c6c6572000000000000000000000081525060200191505060405180910390fd5b60058060058111156119da57fe5b600d60149054906101000a900460ff1660058111156119f557fe5b14611a68576040517f08c379a00000000000000000000000000000000000000000000000000000000081526004018080602001828103825260138152602001807f696e76616c696420746f6b656e2073746174650000000000000000000000000081525060200191505060405180910390fd5b611a726003613a85565b50565b600660009054906101000a900473ffffffffffffffffffffffffffffffffffffffff1681565b60105481565b600b60009054906101000a900473ffffffffffffffffffffffffffffffffffffffff1681565b600d60009054906101000a900473ffffffffffffffffffffffffffffffffffffffff1673ffffffffffffffffffffffffffffffffffffffff163373ffffffffffffffffffffffffffffffffffffffff1614611b8a576040517f08c379a000000000000000000000000000000000000000000000000000000000815260040180806020018281038252601a8152602001807f6f6e6c792061737369676e6d656e7420636f6e74726f6c6c657200000000000081525060200191505060405180910390fd5b6004806005811115611b9857fe5b600d60149054906101000a900460ff166005811115611bb357fe5b14611c26576040517f08c379a00000000000000000000000000000000000000000000000000000000081526004018080602001828103825260138152602001807f696e76616c696420746f6b656e2073746174650000000000000000000000000081525060200191505060405180910390fd5b8273ffffffffffffffffffffffffffffffffffffffff1663a9059cbb838573ffffffffffffffffffffffffffffffffffffffff166370a08231306040518263ffffffff1660e01b8152600401808273ffffffffffffffffffffffffffffffffffffffff1673ffffffffffffffffffffffffffffffffffffffff16815260200191505060206040518083038186803b158015611cc057600080fd5b505afa158015611cd4573d6000803e3d6000fd5b505050506040513d6020811015611cea57600080fd5b81019080805190602001909291905050506040518363ffffffff1660e01b8152600401808373ffffffffffffffffffffffffffffffffffffffff1673ffffffffffffffffffffffffffffffffffffffff16815260200182815260200192505050602060405180830381600087803b158015611d6457600080fd5b505af1158015611d78573d6000803e3d6000fd5b505050506040513d6020811015611d8e57600080fd5b810190808051906020019092919050505050505050565b600a60009054906101000a900473ffffffffffffffffffffffffffffffffffffffff1673ffffffffffffffffffffffffffffffffffffffff163373ffffffffffffffffffffffffffffffffffffffff1614611e68576040517f08c379a00000000000000000000000000000000000000000000000000000000081526004018080602001828103825260158152602001807f6f6e6c792073746174652d636f6e74726f6c6c6572000000000000000000000081525060200191505060405180910390fd5b6002806005811115611e7657fe5b600d60149054906101000a900460ff166005811115611e9157fe5b14611f04576040517f08c379a00000000000000000000000000000000000000000000000000000000081526004018080602001828103825260138152602001807f696e76616c696420746f6b656e2073746174650000000000000000000000000081525060200191505060405180910390fd5b600e543073ffffffffffffffffffffffffffffffffffffffff16311015611f3457611f2f6003613a85565b611f47565b611f3c613b15565b611f466004613a85565b5b50565b600960009054906101000a900473ffffffffffffffffffffffffffffffffffffffff1681565b60045481565b600860009054906101000a900473ffffffffffffffffffffffffffffffffffffffff1681565b600080600260003373ffffffffffffffffffffffffffffffffffffffff1673ffffffffffffffffffffffffffffffffffffffff16815260200190815260200160002060008573ffffffffffffffffffffffffffffffffffffffff1673ffffffffffffffffffffffffffffffffffffffff1681526020019081526020016000205490508083106120ac576000600260003373ffffffffffffffffffffffffffffffffffffffff1673ffffffffffffffffffffffffffffffffffffffff16815260200190815260200160002060008673ffffffffffffffffffffffffffffffffffffffff1673ffffffffffffffffffffffffffffffffffffffff16815260200190815260200160002081905550612140565b6120bf8382613de390919063ffffffff16565b600260003373ffffffffffffffffffffffffffffffffffffffff1673ffffffffffffffffffffffffffffffffffffffff16815260200190815260200160002060008673ffffffffffffffffffffffffffffffffffffffff1673ffffffffffffffffffffffffffffffffffffffff168152602001908152602001600020819055505b8373ffffffffffffffffffffffffffffffffffffffff163373ffffffffffffffffffffffffffffffffffffffff167f8c5be1e5ebec7d5bd14f71427d1e84f3dd0314c0f7b2291e5b200ac8c7c3b925600260003373ffffffffffffffffffffffffffffffffffffffff1673ffffffffffffffffffffffffffffffffffffffff16815260200190815260200160002060008873ffffffffffffffffffffffffffffffffffffffff1673ffffffffffffffffffffffffffffffffffffffff168152602001908152602001600020546040518082815260200191505060405180910390a3600191505092915050565b600c60009054906101000a900473ffffffffffffffffffffffffffffffffffffffff1681565b60008060008373ffffffffffffffffffffffffffffffffffffffff1673ffffffffffffffffffffffffffffffffffffffff168152602001908152602001600020549050919050565b600760009054906101000a900473ffffffffffffffffffffffffffffffffffffffff1681565b600a60009054906101000a900473ffffffffffffffffffffffffffffffffffffffff1673ffffffffffffffffffffffffffffffffffffffff163373ffffffffffffffffffffffffffffffffffffffff1614612383576040517f08c379a00000000000000000000000000000000000000000000000000000000081526004018080602001828103825260158152602001807f6f6e6c792073746174652d636f6e74726f6c6c6572000000000000000000000081525060200191505060405180910390fd5b600180600581111561239157fe5b600d60149054906101000a900460ff1660058111156123ac57fe5b1461241f576040517f08c379a00000000000000000000000000000000000000000000000000000000081526004018080602001828103825260138152602001807f696e76616c696420746f6b656e2073746174650000000000000000000000000081525060200191505060405180910390fd5b6012544310612496576040517f08c379a00000000000000000000000000000000000000000000000000000000081526004018080602001828103825260058152602001807f656e64656400000000000000000000000000000000000000000000000000000081525060200191505060405180910390fd5b601254601054430110612511576040517f08c379a000000000000000000000000000000000000000000000000000000000815260040180806020018281038252600f8152602001807f656e64656420772073696c656e6365000000000000000000000000000000000081525060200191505060405180910390fd5b60105443016011819055506125266002613a85565b50565b600a60009054906101000a900473ffffffffffffffffffffffffffffffffffffffff1673ffffffffffffffffffffffffffffffffffffffff163373ffffffffffffffffffffffffffffffffffffffff16146125ec576040517f08c379a00000000000000000000000000000000000000000000000000000000081526004018080602001828103825260158152602001807f6f6e6c792073746174652d636f6e74726f6c6c6572000000000000000000000081525060200191505060405180910390fd5b600060058111156125f957fe5b600d60149054906101000a900460ff16600581111561261457fe5b148061264557506001600581111561262857fe5b600d60149054906101000a900460ff16600581111561264357fe5b145b6126b7576040517f08c379a000000000000000000000000000000000000000000000000000000000815260040180806020018281038252600d8152602001807f696e76616c69642073746174650000000000000000000000000000000000000081525060200191505060405180910390fd5b83831161272c576040517f08c379a00000000000000000000000000000000000000000000000000000000081526004018080602001828103825260068152602001807f7765694d6178000000000000000000000000000000000000000000000000000081525060200191505060405180910390fd5b806010544301106127a5576040517f08c379a000000000000000000000000000000000000000000000000000000000815260040180806020018281038252600c8152602001807f686967682073696c656e6365000000000000000000000000000000000000000081525060200191505060405180910390fd5b80431061281a576040517f08c379a000000000000000000000000000000000000000000000000000000000815260040180806020018281038252600c8152602001807f7061737420656e64426f636b000000000000000000000000000000000000000081525060200191505060405180910390fd5b83600e8190555082600f81905550816010819055508060128190555061287f600f5461287160646128636032670de0b6b3a76400006302aea5400261128b90919063ffffffff16565b61368690919063ffffffff16565b61368690919063ffffffff16565b60138190555061288f6001613a85565b50505050565b600a60009054906101000a900473ffffffffffffffffffffffffffffffffffffffff1673ffffffffffffffffffffffffffffffffffffffff163373ffffffffffffffffffffffffffffffffffffffff1614612958576040517f08c379a00000000000000000000000000000000000000000000000000000000081526004018080602001828103825260158152602001807f6f6e6c792073746174652d636f6e74726f6c6c6572000000000000000000000081525060200191505060405180910390fd5b600280600581111561296657fe5b600d60149054906101000a900460ff16600581111561298157fe5b146129f4576040517f08c379a00000000000000000000000000000000000000000000000000000000081526004018080602001828103825260138152602001807f696e76616c696420746f6b656e2073746174650000000000000000000000000081525060200191505060405180910390fd5b6129fe6005613a85565b50565b600c60009054906101000a900473ffffffffffffffffffffffffffffffffffffffff1673ffffffffffffffffffffffffffffffffffffffff163373ffffffffffffffffffffffffffffffffffffffff1614612ac4576040517f08c379a00000000000000000000000000000000000000000000000000000000081526004018080602001828103825260188152602001807f6f6e6c7920776974686472617720636f6e74726f6c6c6572000000000000000081525060200191505060405180910390fd5b6004806005811115612ad257fe5b600d60149054906101000a900460ff166005811115612aed57fe5b14612b60576040517f08c379a00000000000000000000000000000000000000000000000000000000081526004018080602001828103825260138152602001807f696e76616c696420746f6b656e2073746174650000000000000000000000000081525060200191505060405180910390fd5b3373ffffffffffffffffffffffffffffffffffffffff166108fc839081150290604051600060405180830381858888f19350505050158015612ba6573d6000803e3d6000fd5b505050565b60115481565b6040518060400160405280600481526020017f435257540000000000000000000000000000000000000000000000000000000081525081565b60056020528060005260406000206000915054906101000a900460ff1681565b600a60009054906101000a900473ffffffffffffffffffffffffffffffffffffffff1673ffffffffffffffffffffffffffffffffffffffff163373ffffffffffffffffffffffffffffffffffffffff1614612ccd576040517f08c379a00000000000000000000000000000000000000000000000000000000081526004018080602001828103825260158152602001807f6f6e6c792073746174652d636f6e74726f6c6c6572000000000000000000000081525060200191505060405180910390fd5b6005806005811115612cdb57fe5b600d60149054906101000a900460ff166005811115612cf657fe5b14612d69576040517f08c379a00000000000000000000000000000000000000000000000000000000081526004018080602001828103825260138152602001807f696e76616c696420746f6b656e2073746174650000000000000000000000000081525060200191505060405180910390fd5b612d736002613a85565b50565b600060046002816005811115612d8857fe5b600d60149054906101000a900460ff166005811115612da357fe5b1480612dd35750806005811115612db657fe5b600d60149054906101000a900460ff166005811115612dd157fe5b145b612e45576040517f08c379a00000000000000000000000000000000000000000000000000000000081526004018080602001828103825260118152602001807f77726f6e6720746f6b656e20737461746500000000000000000000000000000081525060200191505060405180910390fd5b612e4f8585613e2d565b9250505092915050565b603281565b600d60149054906101000a900460ff1681565b600d60009054906101000a900473ffffffffffffffffffffffffffffffffffffffff1681565b600d60009054906101000a900473ffffffffffffffffffffffffffffffffffffffff1673ffffffffffffffffffffffffffffffffffffffff163373ffffffffffffffffffffffffffffffffffffffff1614612f5a576040517f08c379a000000000000000000000000000000000000000000000000000000000815260040180806020018281038252601a8152602001807f6f6e6c792061737369676e6d656e7420636f6e74726f6c6c657200000000000081525060200191505060405180910390fd5b60016005811115612f6757fe5b600d60149054906101000a900460ff166005811115612f8257fe5b1480612fb3575060026005811115612f9657fe5b600d60149054906101000a900460ff166005811115612fb157fe5b145b613025576040517f08c379a00000000000000000000000000000000000000000000000000000000081526004018080602001828103825260138152602001807f696e76616c696420746f6b656e2073746174650000000000000000000000000081525060200191505060405180910390fd5b61302f8282611311565b5050565b600380600581111561304157fe5b600d60149054906101000a900460ff16600581111561305c57fe5b146130cf576040517f08c379a00000000000000000000000000000000000000000000000000000000081526004018080602001828103825260138152602001807f696e76616c696420746f6b656e2073746174650000000000000000000000000081525060200191505060405180910390fd5b6000600360003373ffffffffffffffffffffffffffffffffffffffff1673ffffffffffffffffffffffffffffffffffffffff1681526020019081526020016000205411613184576040517f08c379a00000000000000000000000000000000000000000000000000000000081526004018080602001828103825260118152602001807f6e6f7468696e6720746f20726566756e6400000000000000000000000000000081525060200191505060405180910390fd5b6000600360003373ffffffffffffffffffffffffffffffffffffffff1673ffffffffffffffffffffffffffffffffffffffff1681526020019081526020016000205490506000600360003373ffffffffffffffffffffffffffffffffffffffff1673ffffffffffffffffffffffffffffffffffffffff168152602001908152602001600020819055503373ffffffffffffffffffffffffffffffffffffffff166108fc829081150290604051600060405180830381858888f19350505050158015613253573d6000803e3d6000fd5b505050565b600f5481565b60006132ef82600260003373ffffffffffffffffffffffffffffffffffffffff1673ffffffffffffffffffffffffffffffffffffffff16815260200190815260200160002060008673ffffffffffffffffffffffffffffffffffffffff1673ffffffffffffffffffffffffffffffffffffffff168152602001908152602001600020546114b890919063ffffffff16565b600260003373ffffffffffffffffffffffffffffffffffffffff1673ffffffffffffffffffffffffffffffffffffffff16815260200190815260200160002060008573ffffffffffffffffffffffffffffffffffffffff1673ffffffffffffffffffffffffffffffffffffffff168152602001908152602001600020819055508273ffffffffffffffffffffffffffffffffffffffff163373ffffffffffffffffffffffffffffffffffffffff167f8c5be1e5ebec7d5bd14f71427d1e84f3dd0314c0f7b2291e5b200ac8c7c3b925600260003373ffffffffffffffffffffffffffffffffffffffff1673ffffffffffffffffffffffffffffffffffffffff16815260200190815260200160002060008773ffffffffffffffffffffffffffffffffffffffff1673ffffffffffffffffffffffffffffffffffffffff168152602001908152602001600020546040518082815260200191505060405180910390a36001905092915050565b60135481565b6000600260008473ffffffffffffffffffffffffffffffffffffffff1673ffffffffffffffffffffffffffffffffffffffff16815260200190815260200160002060008373ffffffffffffffffffffffffffffffffffffffff1673ffffffffffffffffffffffffffffffffffffffff16815260200190815260200160002054905092915050565b600b60009054906101000a900473ffffffffffffffffffffffffffffffffffffffff1673ffffffffffffffffffffffffffffffffffffffff163373ffffffffffffffffffffffffffffffffffffffff16146135aa576040517f08c379a00000000000000000000000000000000000000000000000000000000081526004018080602001828103825260188152602001807f6f6e6c792077686974656c69737465642077616c6c657473000000000000000081525060200191505060405180910390fd5b6001600560008373ffffffffffffffffffffffffffffffffffffffff1673ffffffffffffffffffffffffffffffffffffffff16815260200190815260200160002060006101000a81548160ff0219169083151502179055507faab7954e9d246b167ef88aeddad35209ca2489d95a8aeb59e288d9b19fae5a5481604051808273ffffffffffffffffffffffffffffffffffffffff1673ffffffffffffffffffffffffffffffffffffffff16815260200191505060405180910390a150565b600e5481565b60036020528060005260406000206000915090505481565b60006136c883836040518060400160405280601a81526020017f536166654d6174683a206469766973696f6e206279207a65726f0000000000008152506140b2565b905092915050565b60008060008573ffffffffffffffffffffffffffffffffffffffff1673ffffffffffffffffffffffffffffffffffffffff1681526020019081526020016000205482111561371d57600080fd5b600260008573ffffffffffffffffffffffffffffffffffffffff1673ffffffffffffffffffffffffffffffffffffffff16815260200190815260200160002060003373ffffffffffffffffffffffffffffffffffffffff1673ffffffffffffffffffffffffffffffffffffffff168152602001908152602001600020548211156137a657600080fd5b600073ffffffffffffffffffffffffffffffffffffffff168373ffffffffffffffffffffffffffffffffffffffff1614156137e057600080fd5b613831826000808773ffffffffffffffffffffffffffffffffffffffff1673ffffffffffffffffffffffffffffffffffffffff16815260200190815260200160002054613de390919063ffffffff16565b6000808673ffffffffffffffffffffffffffffffffffffffff1673ffffffffffffffffffffffffffffffffffffffff168152602001908152602001600020819055506138c4826000808673ffffffffffffffffffffffffffffffffffffffff1673ffffffffffffffffffffffffffffffffffffffff168152602001908152602001600020546114b890919063ffffffff16565b6000808573ffffffffffffffffffffffffffffffffffffffff1673ffffffffffffffffffffffffffffffffffffffff1681526020019081526020016000208190555061399582600260008773ffffffffffffffffffffffffffffffffffffffff1673ffffffffffffffffffffffffffffffffffffffff16815260200190815260200160002060003373ffffffffffffffffffffffffffffffffffffffff1673ffffffffffffffffffffffffffffffffffffffff16815260200190815260200160002054613de390919063ffffffff16565b600260008673ffffffffffffffffffffffffffffffffffffffff1673ffffffffffffffffffffffffffffffffffffffff16815260200190815260200160002060003373ffffffffffffffffffffffffffffffffffffffff1673ffffffffffffffffffffffffffffffffffffffff168152602001908152602001600020819055508273ffffffffffffffffffffffffffffffffffffffff168473ffffffffffffffffffffffffffffffffffffffff167fddf252ad1be2c89b69c2b068fc378daa952ba7f163c4a11628f55a4df523b3ef846040518082815260200191505060405180910390a3600190509392505050565b7f3a779de46631dd65116ae538600f1bc3c338200c6aef638429b5de43301c28f7600d60149054906101000a900460ff168260405180836005811115613ac757fe5b60ff168152602001826005811115613adb57fe5b60ff1681526020019250505060405180910390a180600d60146101000a81548160ff02191690836005811115613b0d57fe5b021790555050565b613b42600660009054906101000a900473ffffffffffffffffffffffffffffffffffffffff16600f614178565b613b6f600760009054906101000a900473ffffffffffffffffffffffffffffffffffffffff16600a614178565b613b9c600860009054906101000a900473ffffffffffffffffffffffffffffffffffffffff16600a614178565b613bc9600960009054906101000a900473ffffffffffffffffffffffffffffffffffffffff16600f614178565b613d94600080600960009054906101000a900473ffffffffffffffffffffffffffffffffffffffff1673ffffffffffffffffffffffffffffffffffffffff1673ffffffffffffffffffffffffffffffffffffffff16815260200190815260200160002054613d86600080600860009054906101000a900473ffffffffffffffffffffffffffffffffffffffff1673ffffffffffffffffffffffffffffffffffffffff1673ffffffffffffffffffffffffffffffffffffffff16815260200190815260200160002054613d78600080600760009054906101000a900473ffffffffffffffffffffffffffffffffffffffff1673ffffffffffffffffffffffffffffffffffffffff1673ffffffffffffffffffffffffffffffffffffffff16815260200190815260200160002054613d6a600080600660009054906101000a900473ffffffffffffffffffffffffffffffffffffffff1673ffffffffffffffffffffffffffffffffffffffff1673ffffffffffffffffffffffffffffffffffffffff168152602001908152602001600020546004546114b890919063ffffffff16565b6114b890919063ffffffff16565b6114b890919063ffffffff16565b6114b890919063ffffffff16565b6001819055506001601460006101000a81548160ff0219169083151502179055507fae5184fba832cb2b1f702aca6117b8d265eaf03ad33eb133f19dde0f5920fa0860405160405180910390a1565b6000613e2583836040518060400160405280601e81526020017f536166654d6174683a207375627472616374696f6e206f766572666c6f7700008152506142f0565b905092915050565b60008060003373ffffffffffffffffffffffffffffffffffffffff1673ffffffffffffffffffffffffffffffffffffffff16815260200190815260200160002054821115613ee3576040517f08c379a000000000000000000000000000000000000000000000000000000000815260040180806020018281038252600a8152602001807f746f6f206c6974746c650000000000000000000000000000000000000000000081525060200191505060405180910390fd5b600073ffffffffffffffffffffffffffffffffffffffff168373ffffffffffffffffffffffffffffffffffffffff161415613f1d57600080fd5b613f6e826000803373ffffffffffffffffffffffffffffffffffffffff1673ffffffffffffffffffffffffffffffffffffffff16815260200190815260200160002054613de390919063ffffffff16565b6000803373ffffffffffffffffffffffffffffffffffffffff1673ffffffffffffffffffffffffffffffffffffffff16815260200190815260200160002081905550614001826000808673ffffffffffffffffffffffffffffffffffffffff1673ffffffffffffffffffffffffffffffffffffffff168152602001908152602001600020546114b890919063ffffffff16565b6000808573ffffffffffffffffffffffffffffffffffffffff1673ffffffffffffffffffffffffffffffffffffffff168152602001908152602001600020819055508273ffffffffffffffffffffffffffffffffffffffff163373ffffffffffffffffffffffffffffffffffffffff167fddf252ad1be2c89b69c2b068fc378daa952ba7f163c4a11628f55a4df523b3ef846040518082815260200191505060405180910390a36001905092915050565b6000808311829061415e576040517f08c379a00000000000000000000000000000000000000000000000000000000081526004018080602001828103825283818151815260200191508051906020019080838360005b83811015614123578082015181840152602081019050614108565b50505050905090810190601f1680156141505780820380516001836020036101000a031916815260200191505b509250505060405180910390fd5b50600083858161416a57fe5b049050809150509392505050565b60006141a260646141948460015461128b90919063ffffffff16565b61368690919063ffffffff16565b90506141f5816000808673ffffffffffffffffffffffffffffffffffffffff1673ffffffffffffffffffffffffffffffffffffffff168152602001908152602001600020546114b890919063ffffffff16565b6000808573ffffffffffffffffffffffffffffffffffffffff1673ffffffffffffffffffffffffffffffffffffffff168152602001908152602001600020819055508273ffffffffffffffffffffffffffffffffffffffff167f0f6798a560793a54c3bcfe86a93cde1e73087d944c0ea20544137d4121396885826040518082815260200191505060405180910390a28273ffffffffffffffffffffffffffffffffffffffff16600073ffffffffffffffffffffffffffffffffffffffff167fddf252ad1be2c89b69c2b068fc378daa952ba7f163c4a11628f55a4df523b3ef836040518082815260200191505060405180910390a3505050565b600083831115829061439d576040517f08c379a00000000000000000000000000000000000000000000000000000000081526004018080602001828103825283818151815260200191508051906020019080838360005b83811015614362578082015181840152602081019050614347565b50505050905090810190601f16801561438f5780820380516001836020036101000a031916815260200191505b509250505060405180910390fd5b506000838503905080915050939250505056fe536166654d6174683a206d756c7469706c69636174696f6e206f766572666c6f77a265627a7a7231582015657c000028fe70a9622a7d92e41d55208226f3a0de58bc4f8aa17d85f3f8cd64736f6c634300050c0032",
  "source": "/*\r\nImplements ERC 20 Token standard: https://github.com/ethereum/EIPs/issues/20.\r\n*/\r\npragma solidity ^0.5.12;\r\n\r\nimport \"./zeppelin_v1_12_0/StandardToken.sol\";\r\n\r\ncontract CrwdToken is StandardToken {\r\n\r\n    // data structures\r\n    enum States {\r\n        Initial, // deployment time\r\n        ValuationSet,\r\n        Ico, // whitelist addresses, accept funds, update balances\r\n        Underfunded, // ICO time finished and minimal amount not raised\r\n        Operational, // production phase\r\n        Paused // for contract upgrades\r\n    }\r\n\r\n    mapping(address => uint256) public ethPossibleRefunds;\r\n\r\n    uint256 public soldTokens;\r\n\r\n    string public constant name = \"CRWDToken\";\r\n\r\n    string public constant symbol = \"CRWT\";\r\n\r\n    uint8 public constant decimals = 18;\r\n\r\n    mapping(address => bool) public whitelist;\r\n\r\n    address public teamTimeLock;\r\n    address public devTimeLock;\r\n    address public countryTimeLock;\r\n\r\n    address public miscNotLocked;\r\n\r\n    address public stateControl;\r\n\r\n    address public whitelistControl;\r\n\r\n    address public withdrawControl;\r\n\r\n    address public tokenAssignmentControl;\r\n\r\n    States public state;\r\n\r\n    uint256 public weiICOMinimum;\r\n\r\n    uint256 public weiICOMaximum;\r\n\r\n    uint256 public silencePeriod;\r\n\r\n    uint256 public startAcceptingFundsBlock;\r\n\r\n    uint256 public endBlock;\r\n\r\n    uint256 public ETH_CRWDTOKEN; //number of tokens per ETH\r\n\r\n    uint256 constant pointMultiplier = 1e18; //100% = 1*10^18 points\r\n\r\n    uint256 public constant maxTotalSupply = 45000000 * pointMultiplier;\r\n\r\n    uint256 public constant percentForSale = 50;\r\n\r\n    event Mint(address indexed to, uint256 amount);\r\n    event MintFinished();\r\n\r\n    bool public mintingFinished = false;\r\n\r\n    //this creates the contract and stores the owner. it also passes in 3 addresses to be used later during the lifetime of the contract.\r\n    constructor(\r\n        address _stateControl,\r\n        address _whitelistControl,\r\n        address _withdrawControl,\r\n        address _tokenAssignmentControl,\r\n        address _notLocked, //15%\r\n        address _lockedTeam, //15%\r\n        address _lockedDev, //10%\r\n        address _lockedCountry //10%\r\n    ) public {\r\n        stateControl = _stateControl;\r\n        whitelistControl = _whitelistControl;\r\n        withdrawControl = _withdrawControl;\r\n        tokenAssignmentControl = _tokenAssignmentControl;\r\n        moveToState(States.Initial);\r\n        weiICOMinimum = 0;\r\n        //to be overridden\r\n        weiICOMaximum = 0;\r\n        endBlock = 0;\r\n        ETH_CRWDTOKEN = 0;\r\n        totalSupply_ = 0;\r\n        soldTokens = 0;\r\n        teamTimeLock = _lockedTeam;\r\n        devTimeLock = _lockedDev;\r\n        countryTimeLock = _lockedCountry;\r\n        miscNotLocked = _notLocked;\r\n    }\r\n\r\n    event Whitelisted(address addr);\r\n\r\n    event StateTransition(States oldState, States newState);\r\n\r\n    modifier onlyWhitelist() {\r\n        require(msg.sender == whitelistControl, \"only whitelisted wallets\");\r\n        _;\r\n    }\r\n\r\n    modifier onlyStateControl() {\r\n        require(msg.sender == stateControl, \"only state-controller\");\r\n        _;\r\n    }\r\n\r\n    modifier onlyTokenAssignmentControl() {\r\n        require(msg.sender == tokenAssignmentControl, \"only assignment controller\");\r\n        _;\r\n    }\r\n\r\n    modifier onlyWithdraw() {\r\n        require(msg.sender == withdrawControl, \"only withdraw controller\");\r\n        _;\r\n    }\r\n\r\n    modifier requireState(States _requiredState) {\r\n        require(state == _requiredState, \"invalid token state\");\r\n        _;\r\n    }\r\n\r\n    modifier requireAnyOfTwoStates(States _requiredState1, States _requiredState2) {\r\n        require(state == _requiredState1 || state == _requiredState2, \"wrong token state\");\r\n        _;\r\n    }\r\n\r\n    /**\r\n    BEGIN ICO functions\r\n    */\r\n\r\n    //this is the main funding function, it updates the balances of tokens during the ICO.\r\n    //no particular incentive schemes have been implemented here\r\n    //it is only accessible during the \"ICO\" phase.\r\n    function() external payable\r\n    requireState(States.Ico)\r\n    {\r\n        require(whitelist[msg.sender] == true, \"not whitelisted\");\r\n        require(address(this).balance <= weiICOMaximum, \"weiICOMaximum\");\r\n        //note that msg.value is already included in address(this).balance\r\n        require(block.number < endBlock, \"endBlock reached\");\r\n        require(block.number >= startAcceptingFundsBlock, \"startBlock future\");\r\n\r\n        uint256 basisTokens = msg.value.mul(ETH_CRWDTOKEN);\r\n\r\n        issueTokensToUser(msg.sender, basisTokens);\r\n        ethPossibleRefunds[msg.sender] = ethPossibleRefunds[msg.sender].add(msg.value);\r\n    }\r\n\r\n    function issueTokensToUser(address beneficiary, uint256 amount)\r\n    internal\r\n    {\r\n        balances[beneficiary] = balances[beneficiary].add(amount);\r\n        soldTokens = soldTokens.add(amount);\r\n        totalSupply_ = totalSupply_.add(amount.mul(100).div(percentForSale));\r\n        emit Mint(beneficiary, amount);\r\n        emit Transfer(address(0x0), beneficiary, amount);\r\n    }\r\n\r\n    function issuePercentToReserve(address beneficiary, uint256 percentOfSold)\r\n    internal\r\n    {\r\n        uint256 amount = totalSupply_.mul(percentOfSold).div(100);\r\n        balances[beneficiary] = balances[beneficiary].add(amount);\r\n        emit Mint(beneficiary, amount);\r\n        emit Transfer(address(0x0), beneficiary, amount);\r\n    }\r\n\r\n    function moveToState(States _newState)\r\n    internal\r\n    {\r\n        emit StateTransition(state, _newState);\r\n        state = _newState;\r\n    }\r\n\r\n    // ICO contract configuration function\r\n    // newEthICOMinimum is the minimum amount of funds to raise\r\n    // newEthICOMaximum is the maximum amount of funds to raise\r\n    // silencePeriod is a number of blocks to wait after starting the ICO. No funds are accepted during the silence period. It can be set to zero.\r\n    // newEndBlock is the absolute block number at which the ICO must stop. It must be set after now + silence period.\r\n    function updateEthICOThresholds(uint256 _newWeiICOMinimum, uint256 _newWeiICOMaximum, uint256 _silencePeriod, uint256 _newEndBlock)\r\n    public\r\n    onlyStateControl\r\n    {\r\n        require(state == States.Initial || state == States.ValuationSet, \"invalid state\");\r\n        require(_newWeiICOMaximum > _newWeiICOMinimum, \"weiMax\");\r\n        require(block.number + silencePeriod < _newEndBlock, \"high silence\");\r\n        require(block.number < _newEndBlock, \"past endBock\");\r\n        weiICOMinimum = _newWeiICOMinimum;\r\n        weiICOMaximum = _newWeiICOMaximum;\r\n        silencePeriod = _silencePeriod;\r\n        endBlock = _newEndBlock;\r\n        // initial conversion rate of ETH_CRWDTOKEN set now, this is used during the Ico phase.\r\n        ETH_CRWDTOKEN = maxTotalSupply.mul(percentForSale).div(100).div(weiICOMaximum);\r\n        // check pointMultiplier\r\n        moveToState(States.ValuationSet);\r\n    }\r\n\r\n    function startICO()\r\n    public\r\n    onlyStateControl\r\n    requireState(States.ValuationSet)\r\n    {\r\n        require(block.number < endBlock, \"ended\");\r\n        require(block.number + silencePeriod < endBlock, \"ended w silence\");\r\n        startAcceptingFundsBlock = block.number + silencePeriod;\r\n        moveToState(States.Ico);\r\n    }\r\n\r\n    function addPresaleAmount(address beneficiary, uint256 amount)\r\n    public\r\n    onlyTokenAssignmentControl\r\n    {\r\n        require(state == States.ValuationSet || state == States.Ico, \"invalid token state\");\r\n        issueTokensToUser(beneficiary, amount);\r\n    }\r\n\r\n\r\n    function endICO()\r\n    public\r\n    onlyStateControl\r\n    requireState(States.Ico)\r\n    {\r\n        if (address(this).balance < weiICOMinimum) {\r\n            moveToState(States.Underfunded);\r\n        }\r\n        else {\r\n            burnAndFinish();\r\n            moveToState(States.Operational);\r\n        }\r\n    }\r\n\r\n    function anyoneEndICO()\r\n    public\r\n    requireState(States.Ico)\r\n    {\r\n        require(block.number > endBlock, \"not ended\");\r\n        if (address(this).balance < weiICOMinimum) {\r\n            moveToState(States.Underfunded);\r\n        }\r\n        else {\r\n            burnAndFinish();\r\n            moveToState(States.Operational);\r\n        }\r\n    }\r\n\r\n    function burnAndFinish()\r\n    internal\r\n    {\r\n        issuePercentToReserve(teamTimeLock, 15);\r\n        issuePercentToReserve(devTimeLock, 10);\r\n        issuePercentToReserve(countryTimeLock, 10);\r\n        issuePercentToReserve(miscNotLocked, 15);\r\n\r\n        totalSupply_ = soldTokens\r\n        .add(balances[teamTimeLock])\r\n        .add(balances[devTimeLock])\r\n        .add(balances[countryTimeLock])\r\n        .add(balances[miscNotLocked]);\r\n\r\n        mintingFinished = true;\r\n        emit MintFinished();\r\n    }\r\n\r\n    function addToWhitelist(address _whitelisted)\r\n    public\r\n    onlyWhitelist\r\n        //    requireState(States.Ico)\r\n    {\r\n        whitelist[_whitelisted] = true;\r\n        emit Whitelisted(_whitelisted);\r\n    }\r\n\r\n\r\n    //emergency pause for the ICO\r\n    function pause()\r\n    public\r\n    onlyStateControl\r\n    requireState(States.Ico)\r\n    {\r\n        moveToState(States.Paused);\r\n    }\r\n\r\n    //in case we want to completely abort\r\n    function abort()\r\n    public\r\n    onlyStateControl\r\n    requireState(States.Paused)\r\n    {\r\n        moveToState(States.Underfunded);\r\n    }\r\n\r\n    //un-pause\r\n    function resumeICO()\r\n    public\r\n    onlyStateControl\r\n    requireState(States.Paused)\r\n    {\r\n        moveToState(States.Ico);\r\n    }\r\n\r\n    //in case of a failed/aborted ICO every investor can get back their money\r\n    function requestRefund()\r\n    public\r\n    requireState(States.Underfunded)\r\n    {\r\n        require(ethPossibleRefunds[msg.sender] > 0, \"nothing to refund\");\r\n        //there is no need for updateAccount(msg.sender) since the token never became active.\r\n        uint256 payout = ethPossibleRefunds[msg.sender];\r\n        //reverse calculate the amount to pay out\r\n        ethPossibleRefunds[msg.sender] = 0;\r\n        msg.sender.transfer(payout);\r\n    }\r\n\r\n    //after the ico has run its course, the withdraw account can drain funds bit-by-bit as needed.\r\n    function requestPayout(uint _amount)\r\n    public\r\n    onlyWithdraw //very important!\r\n    requireState(States.Operational)\r\n    {\r\n        msg.sender.transfer(_amount);\r\n    }\r\n\r\n    //if this contract gets a balance in some other ERC20 contract - or even iself - then we can rescue it.\r\n    function rescueToken(ERC20Basic _foreignToken, address _to)\r\n    public\r\n    onlyTokenAssignmentControl\r\n    requireState(States.Operational)\r\n    {\r\n        _foreignToken.transfer(_to, _foreignToken.balanceOf(address(this)));\r\n    }\r\n    /**\r\n    END ICO functions\r\n    */\r\n\r\n    /**\r\n    BEGIN ERC20 functions\r\n    */\r\n    function transfer(address _to, uint256 _value)\r\n    public\r\n    requireAnyOfTwoStates(States.Operational, States.Ico)\r\n    returns (bool success) {\r\n        return super.transfer(_to, _value);\r\n    }\r\n\r\n    function transferFrom(address _from, address _to, uint256 _value)\r\n    public\r\n    requireAnyOfTwoStates(States.Operational, States.Ico)\r\n    returns (bool success) {\r\n        return super.transferFrom(_from, _to, _value);\r\n    }\r\n\r\n    function balanceOf(address _account)\r\n    public\r\n    view\r\n    returns (uint256 balance) {\r\n        return balances[_account];\r\n    }\r\n\r\n    /**\r\n    END ERC20 functions\r\n    */\r\n}\r\n",
  "sourcePath": "E:\\CONDA\\crwdtoken\\contracts\\CrwdToken.sol",
  "compiler": {
    "name": "solc",
    "version": "0.5.12+commit.7709ece9.Emscripten.clang"
  },
  "schemaVersion": "3.0.19",
  "updatedAt": "2019-12-23T15:53:14.189Z",
  "networkType": "ethereum",
  "devdoc": {
    "methods": {
      "allowance(address,address)": {
        "details": "Function to check the amount of tokens that an owner allowed to a spender.",
        "params": {
          "_owner": "address The address which owns the funds.",
          "_spender": "address The address which will spend the funds."
        },
        "return": "A uint256 specifying the amount of tokens still available for the spender."
      },
      "approve(address,uint256)": {
        "details": "Approve the passed address to spend the specified amount of tokens on behalf of msg.sender. Beware that changing an allowance with this method brings the risk that someone may use both the old and the new allowance by unfortunate transaction ordering. One possible solution to mitigate this race condition is to first reduce the spender's allowance to 0 and set the desired value afterwards: https://github.com/ethereum/EIPs/issues/20#issuecomment-263524729",
        "params": {
          "_spender": "The address which will spend the funds.",
          "_value": "The amount of tokens to be spent."
        }
      },
      "decreaseApproval(address,uint256)": {
        "details": "Decrease the amount of tokens that an owner allowed to a spender. approve should be called when allowed[_spender] == 0. To decrement allowed value is better to use this function to avoid 2 calls (and wait until the first transaction is mined) From MonolithDAO Token.sol",
        "params": {
          "_spender": "The address which will spend the funds.",
          "_subtractedValue": "The amount of tokens to decrease the allowance by."
        }
      },
      "increaseApproval(address,uint256)": {
        "details": "Increase the amount of tokens that an owner allowed to a spender. approve should be called when allowed[_spender] == 0. To increment allowed value is better to use this function to avoid 2 calls (and wait until the first transaction is mined) From MonolithDAO Token.sol",
        "params": {
          "_addedValue": "The amount of tokens to increase the allowance by.",
          "_spender": "The address which will spend the funds."
        }
      },
      "totalSupply()": {
        "details": "Total number of tokens in existence"
      }
    }
  },
  "userdoc": {
    "methods": {
      "transfer(address,uint256)": {
        "notice": "BEGIN ERC20 functions"
      }
    }
  }
}